{
  "contractName": "GeolocData",
  "abi": [
    {
      "constant": false,
      "inputs": [
        {
          "name": "_latitude",
          "type": "uint256"
        },
        {
          "name": "_longitude",
          "type": "uint256"
        }
      ],
      "name": "addLocation",
      "outputs": [],
      "payable": false,
      "stateMutability": "nonpayable",
      "type": "function"
    },
    {
      "constant": true,
      "inputs": [
        {
          "name": "_index",
          "type": "uint256"
        }
      ],
      "name": "getLocation",
      "outputs": [
        {
          "name": "latitude",
          "type": "uint256"
        },
        {
          "name": "longitude",
          "type": "uint256"
        },
        {
          "name": "artist",
          "type": "address"
        }
      ],
      "payable": false,
      "stateMutability": "view",
      "type": "function"
    },
    {
      "constant": true,
      "inputs": [],
      "name": "owner",
      "outputs": [
        {
          "name": "",
          "type": "address"
        }
      ],
      "payable": false,
      "stateMutability": "view",
      "type": "function"
    },
    {
      "constant": true,
      "inputs": [
        {
          "name": "_address",
          "type": "address"
        }
      ],
      "name": "getLocationIdsFromAddress",
      "outputs": [
        {
          "name": "",
          "type": "uint256[]"
        }
      ],
      "payable": false,
      "stateMutability": "view",
      "type": "function"
    },
    {
      "constant": true,
      "inputs": [],
      "name": "getCount",
      "outputs": [
        {
          "name": "",
          "type": "uint256"
        }
      ],
      "payable": false,
      "stateMutability": "view",
      "type": "function"
    },
    {
      "constant": true,
      "inputs": [],
      "name": "getLocations",
      "outputs": [
        {
          "components": [
            {
              "name": "latitude",
              "type": "uint256"
            },
            {
              "name": "longitude",
              "type": "uint256"
            },
            {
              "name": "artist",
              "type": "address"
            }
          ],
          "name": "",
          "type": "tuple[]"
        }
      ],
      "payable": false,
      "stateMutability": "view",
      "type": "function"
    },
    {
      "constant": true,
      "inputs": [
        {
          "name": "",
          "type": "uint256"
        }
      ],
      "name": "locations",
      "outputs": [
        {
          "name": "latitude",
          "type": "uint256"
        },
        {
          "name": "longitude",
          "type": "uint256"
        },
        {
          "name": "artist",
          "type": "address"
        }
      ],
      "payable": false,
      "stateMutability": "view",
      "type": "function"
    },
    {
      "constant": false,
      "inputs": [
        {
          "name": "newOwner",
          "type": "address"
        }
      ],
      "name": "transferOwnership",
      "outputs": [],
      "payable": false,
      "stateMutability": "nonpayable",
      "type": "function"
    },
    {
      "anonymous": false,
      "inputs": [
        {
          "indexed": true,
          "name": "previousOwner",
          "type": "address"
        },
        {
          "indexed": true,
          "name": "newOwner",
          "type": "address"
        }
      ],
      "name": "OwnershipTransferred",
      "type": "event"
    }
  ],
  "bytecode": "0x6060604052336000806101000a81548173ffffffffffffffffffffffffffffffffffffffff021916908373ffffffffffffffffffffffffffffffffffffffff160217905550610a20806100536000396000f30060606040526004361061008e576000357c0100000000000000000000000000000000000000000000000000000000900463ffffffff16806350e2304c146100935780637f7b1393146100bf5780638da5cb5b14610130578063a43f300414610185578063a87d942c14610213578063ab63616f1461023c578063b9e0db35146102a1578063f2fde38b14610312575b600080fd5b341561009e57600080fd5b6100bd600480803590602001909190803590602001909190505061034b565b005b34156100ca57600080fd5b6100e06004808035906020019091905050610511565b604051808481526020018381526020018273ffffffffffffffffffffffffffffffffffffffff1673ffffffffffffffffffffffffffffffffffffffff168152602001935050505060405180910390f35b341561013b57600080fd5b6101436105a6565b604051808273ffffffffffffffffffffffffffffffffffffffff1673ffffffffffffffffffffffffffffffffffffffff16815260200191505060405180910390f35b341561019057600080fd5b6101bc600480803573ffffffffffffffffffffffffffffffffffffffff169060200190919050506105cb565b6040518080602001828103825283818151815260200191508051906020019060200280838360005b838110156101ff5780820151818401526020810190506101e4565b505050509050019250505060405180910390f35b341561021e57600080fd5b610226610668565b6040518082815260200191505060405180910390f35b341561024757600080fd5b61024f610675565b60405180806020018281038252838181518152602001915080516000925b81841015610290578284906020019060200201518152602001926001019261026d565b925050509250505060405180910390f35b34156102ac57600080fd5b6102c26004808035906020019091905050610745565b604051808481526020018381526020018273ffffffffffffffffffffffffffffffffffffffff1673ffffffffffffffffffffffffffffffffffffffff168152602001935050505060405180910390f35b341561031d57600080fd5b610349600480803573ffffffffffffffffffffffffffffffffffffffff1690602001909190505061079e565b005b60008060009054906101000a900473ffffffffffffffffffffffffffffffffffffffff1673ffffffffffffffffffffffffffffffffffffffff163373ffffffffffffffffffffffffffffffffffffffff161415156103a857600080fd5b60018080548060010182816103bd91906108f3565b916000526020600020906003020160006060604051908101604052808881526020018781526020016000809054906101000a900473ffffffffffffffffffffffffffffffffffffffff1673ffffffffffffffffffffffffffffffffffffffff168152509091909150600082015181600001556020820151816001015560408201518160020160006101000a81548173ffffffffffffffffffffffffffffffffffffffff021916908373ffffffffffffffffffffffffffffffffffffffff1602179055505050039050600260008060009054906101000a900473ffffffffffffffffffffffffffffffffffffffff1673ffffffffffffffffffffffffffffffffffffffff1673ffffffffffffffffffffffffffffffffffffffff16815260200190815260200160002080548060010182816104f79190610925565b916000526020600020900160008390919091505550505050565b600080600060018481548110151561052557fe5b90600052602060002090600302016000015460018581548110151561054657fe5b90600052602060002090600302016001015460018681548110151561056757fe5b906000526020600020906003020160020160009054906101000a900473ffffffffffffffffffffffffffffffffffffffff169250925092509193909250565b6000809054906101000a900473ffffffffffffffffffffffffffffffffffffffff1681565b6105d3610951565b600260008373ffffffffffffffffffffffffffffffffffffffff1673ffffffffffffffffffffffffffffffffffffffff16815260200190815260200160002080548060200260200160405190810160405280929190818152602001828054801561065c57602002820191906000526020600020905b815481526020019060010190808311610648575b50505050509050919050565b6000600180549050905090565b61067d610965565b6001805480602002602001604051908101604052809291908181526020016000905b8282101561073c57838290600052602060002090600302016060604051908101604052908160008201548152602001600182015481526020016002820160009054906101000a900473ffffffffffffffffffffffffffffffffffffffff1673ffffffffffffffffffffffffffffffffffffffff1673ffffffffffffffffffffffffffffffffffffffff16815250508152602001906001019061069f565b50505050905090565b60018181548110151561075457fe5b90600052602060002090600302016000915090508060000154908060010154908060020160009054906101000a900473ffffffffffffffffffffffffffffffffffffffff16905083565b6000809054906101000a900473ffffffffffffffffffffffffffffffffffffffff1673ffffffffffffffffffffffffffffffffffffffff163373ffffffffffffffffffffffffffffffffffffffff161415156107f957600080fd5b600073ffffffffffffffffffffffffffffffffffffffff168173ffffffffffffffffffffffffffffffffffffffff161415151561083557600080fd5b8073ffffffffffffffffffffffffffffffffffffffff166000809054906101000a900473ffffffffffffffffffffffffffffffffffffffff1673ffffffffffffffffffffffffffffffffffffffff167f8be0079c531659141344cd1fd0a4f28419497f9722a3daafe3b4186f6b6457e060405160405180910390a3806000806101000a81548173ffffffffffffffffffffffffffffffffffffffff021916908373ffffffffffffffffffffffffffffffffffffffff16021790555050565b8154818355818115116109205760030281600302836000526020600020918201910161091f9190610979565b5b505050565b81548183558181151161094c5781836000526020600020918201910161094b91906109cf565b5b505050565b602060405190810160405280600081525090565b602060405190810160405280600081525090565b6109cc91905b808211156109c85760008082016000905560018201600090556002820160006101000a81549073ffffffffffffffffffffffffffffffffffffffff02191690555060030161097f565b5090565b90565b6109f191905b808211156109ed5760008160009055506001016109d5565b5090565b905600a165627a7a72305820095bf2b2243bed90121a10b6c53abdacbda532bd9c68d928091fe706149b3b7f0029",
  "source": "pragma solidity ^0.4.2;\nimport 'zeppelin-solidity/contracts/ownership/Ownable.sol';\n\ncontract GeolocData is Ownable {\n\n  // Location strucs represents lat/long coordinates, + the owner of that location\n  struct Location {\n    uint latitude;\n    uint longitude;\n    address artist;\n  }\n\n  Location[] public locations;\n\n  mapping (address => uint[]) artistsToGeolocs;\n\n  // only the owner of the contract can call this function\n  function addLocation(uint _latitude, uint _longitude) public onlyOwner {\n    uint id = locations.push(Location(_latitude, _longitude, owner)) - 1;\n\n    // add the location to the owner's array\n    artistsToGeolocs[owner].push(id);\n  }\n\n  // public helper, for testing purposes\n  function getCount() public view returns (uint) {\n     return locations.length;\n  }\n\n  // public getter, returning the full array of locations\n  function getLocations() public view returns (Location[]) {\n     return locations;\n  }\n\n  function getLocationIdsFromAddress(address _address) public view returns (uint[]) {\n     return artistsToGeolocs[_address];\n  }\n\n  // getter used by web3 for the details, once we know the array of interest\n  function getLocation(uint _index) public view returns (uint latitude, uint longitude, address artist) {\n    return (locations[_index].latitude, locations[_index].longitude, locations[_index].artist);\n  }\n}\n",
  "sourcePath": "/Users/Matthieu/Documents/Prog/ethereum/geoloc/contracts/GeolocData.sol",
  "compiler": {
    "name": "solc",
    "version": "0.4.18+commit.9cf6e910.Emscripten.clang"
  },
  "schemaVersion": "1.0.1",
  "updatedAt": "2017-12-30T02:35:01.619Z"
}