{
  "contractName": "GeolocData",
  "abi": [
    {
      "constant": false,
      "inputs": [
        {
          "name": "_latitude",
          "type": "uint256"
        },
        {
          "name": "_longitude",
          "type": "uint256"
        }
      ],
      "name": "addLocation",
      "outputs": [],
      "payable": false,
      "stateMutability": "nonpayable",
      "type": "function"
    },
    {
      "constant": true,
      "inputs": [
        {
          "name": "_index",
          "type": "uint256"
        }
      ],
      "name": "getLocation",
      "outputs": [
        {
          "name": "",
          "type": "uint256"
        },
        {
          "name": "",
          "type": "uint256"
        }
      ],
      "payable": false,
      "stateMutability": "view",
      "type": "function"
    },
    {
      "constant": true,
      "inputs": [],
      "name": "owner",
      "outputs": [
        {
          "name": "",
          "type": "address"
        }
      ],
      "payable": false,
      "stateMutability": "view",
      "type": "function"
    },
    {
      "constant": true,
      "inputs": [],
      "name": "getCount",
      "outputs": [
        {
          "name": "",
          "type": "uint256"
        }
      ],
      "payable": false,
      "stateMutability": "view",
      "type": "function"
    },
    {
      "constant": true,
      "inputs": [
        {
          "name": "",
          "type": "uint256"
        }
      ],
      "name": "locations",
      "outputs": [
        {
          "name": "latitude",
          "type": "uint256"
        },
        {
          "name": "longitude",
          "type": "uint256"
        }
      ],
      "payable": false,
      "stateMutability": "view",
      "type": "function"
    },
    {
      "constant": false,
      "inputs": [
        {
          "name": "newOwner",
          "type": "address"
        }
      ],
      "name": "transferOwnership",
      "outputs": [],
      "payable": false,
      "stateMutability": "nonpayable",
      "type": "function"
    },
    {
      "anonymous": false,
      "inputs": [
        {
          "indexed": true,
          "name": "previousOwner",
          "type": "address"
        },
        {
          "indexed": true,
          "name": "newOwner",
          "type": "address"
        }
      ],
      "name": "OwnershipTransferred",
      "type": "event"
    }
  ],
  "bytecode": "0x6060604052336000806101000a81548173ffffffffffffffffffffffffffffffffffffffff021916908373ffffffffffffffffffffffffffffffffffffffff160217905550610525806100536000396000f300606060405260043610610078576000357c0100000000000000000000000000000000000000000000000000000000900463ffffffff16806350e2304c1461007d5780637f7b1393146100a95780638da5cb5b146100e7578063a87d942c1461013c578063b9e0db3514610165578063f2fde38b146101a3575b600080fd5b341561008857600080fd5b6100a760048080359060200190919080359060200190919050506101dc565b005b34156100b457600080fd5b6100ca6004808035906020019091905050610290565b604051808381526020018281526020019250505060405180910390f35b34156100f257600080fd5b6100fa6102de565b604051808273ffffffffffffffffffffffffffffffffffffffff1673ffffffffffffffffffffffffffffffffffffffff16815260200191505060405180910390f35b341561014757600080fd5b61014f610303565b6040518082815260200191505060405180910390f35b341561017057600080fd5b6101866004808035906020019091905050610310565b604051808381526020018281526020019250505060405180910390f35b34156101ae57600080fd5b6101da600480803573ffffffffffffffffffffffffffffffffffffffff16906020019091905050610343565b005b6000809054906101000a900473ffffffffffffffffffffffffffffffffffffffff1673ffffffffffffffffffffffffffffffffffffffff163373ffffffffffffffffffffffffffffffffffffffff1614151561023757600080fd5b6001805480600101828161024b9190610498565b91600052602060002090600202016000604080519081016040528086815260200185815250909190915060008201518160000155602082015181600101555050505050565b6000806001838154811015156102a257fe5b9060005260206000209060020201600001546001848154811015156102c357fe5b90600052602060002090600202016001015491509150915091565b6000809054906101000a900473ffffffffffffffffffffffffffffffffffffffff1681565b6000600180549050905090565b60018181548110151561031f57fe5b90600052602060002090600202016000915090508060000154908060010154905082565b6000809054906101000a900473ffffffffffffffffffffffffffffffffffffffff1673ffffffffffffffffffffffffffffffffffffffff163373ffffffffffffffffffffffffffffffffffffffff1614151561039e57600080fd5b600073ffffffffffffffffffffffffffffffffffffffff168173ffffffffffffffffffffffffffffffffffffffff16141515156103da57600080fd5b8073ffffffffffffffffffffffffffffffffffffffff166000809054906101000a900473ffffffffffffffffffffffffffffffffffffffff1673ffffffffffffffffffffffffffffffffffffffff167f8be0079c531659141344cd1fd0a4f28419497f9722a3daafe3b4186f6b6457e060405160405180910390a3806000806101000a81548173ffffffffffffffffffffffffffffffffffffffff021916908373ffffffffffffffffffffffffffffffffffffffff16021790555050565b8154818355818115116104c5576002028160020283600052602060002091820191016104c491906104ca565b5b505050565b6104f691905b808211156104f2576000808201600090556001820160009055506002016104d0565b5090565b905600a165627a7a7230582070b08c55c114c59c397dedfd8d1c1095af2e0a50f51095217b11cbeafbd4f1ea0029",
  "source": "pragma solidity ^0.4.2;\nimport 'zeppelin-solidity/contracts/ownership/Ownable.sol';\n\ncontract GeolocData is Ownable {\n\n  // Location strucs represents lat/long coordinates, + the owner of that location\n  struct Location {\n    uint latitude;\n    uint longitude;\n  }\n\n  Location[] public locations;\n\n  /* mapping (uint => address) public geolocToOwner; */\n  /* mapping (address => uint) public ownerToGeolocs; */\n\n  // only the owner of the contract can call this function\n  function addLocation(uint _latitude, uint _longitude) public onlyOwner {\n    locations.push(Location(_latitude, _longitude));\n  }\n\n  // public helper, for testing purposes\n  function getCount() public view returns (uint) {\n     return locations.length;\n  }\n\n  // public getter, returning the full array of locations\n  /* function getLocations() public view returns (Location[]) {\n     return locations;\n  } */\n\n  // getter used by web3\n  function getLocation(uint _index) public view returns (uint, uint) {\n    return (locations[_index].latitude, locations[_index].longitude);\n  }\n}\n",
  "sourcePath": "/Users/Matthieu/Documents/Prog/ethereum/geoloc/contracts/GeolocData.sol",
  "compiler": {
    "name": "solc",
    "version": "0.4.18+commit.9cf6e910.Emscripten.clang"
  },
  "schemaVersion": "1.0.1",
  "updatedAt": "2017-12-28T23:19:43.581Z"
}